{
    "blockHeight": 187200,
    "blockHash": "0000000000098216b2c8946374f506d9699f23f9d0c0b526dfab488ff6afd3e6",
    "blockTime":  1557286179,
    "blockTxs": [
        "e9dd6d9467728cc5c96ca3206ccd2f390d9790ccce9b16bf0c06cec8042191f4",
        "b99ecf023d08d5201f873e5994b6e87c310b0e6928b9f2e01d13ccb173597331",
        "6c43546527ce0f343e2d3b07db8b2244620a333eeac83587fe1b0cd86a5f441f"
    ],
    "txDetails": {
        "e9dd6d9467728cc5c96ca3206ccd2f390d9790ccce9b16bf0c06cec8042191f4": {
            "hex": "01000000010000000000000000000000000000000000000000000000000000000000000000ffffffff00ffffffff03cc76060600000000000017a914d585cd7426d25b4ea5faf1e6987aacfeda3db94287000000000000000000000e6a0c40db0200c4023a6b8345cdc9300127240000000000001976a914cacbeab33185c683a1ffb7ffac4fdbace486f79188ac000000000000000001943f2d2a0000000000000000ffffffff0800002f646372642f",
            "txid": "e9dd6d9467728cc5c96ca3206ccd2f390d9790ccce9b16bf0c06cec8042191f4",
            "blocktime":  1557286179,
            "time":  1557286179,
            "locktime": 0,
            "version": 1,
            "vin": [
                {
                    "txid": "",
                    "vout": 0,
                    "coinbase": "00002f646372642f",
                    "sequence": 4294967295
                }
            ],
            "vout": [
                {
                    "value": 1.01086924,
                    "n": 0,
                    "scriptPubKey": {
                        "hex": "a914d585cd7426d25b4ea5faf1e6987aacfeda3db94287",
                        "addresses": [
                            "TcrypGAcGCRVXrES7hWqVZb5oLJKCZEtoL1"
                        ]
                    }
                },
                {
                    "value": 0,
                    "n": 1,
                    "scriptPubKey": {
                        "hex": "6a0c40db0200c4023a6b8345cdc9"
                    }
                },
                {
                    "value": 6.06535984,
                    "n": 2,
                    "scriptPubKey": {
                       "hex": "76a914cacbeab33185c683a1ffb7ffac4fdbace486f79188ac",
                       "addresses": [
                          "TsjWRFhPGzoP4Kvf1rMAH5MBhVXCrNFiMyv"
                       ]
                    }
                 }
            ]
        },
        "b99ecf023d08d5201f873e5994b6e87c310b0e6928b9f2e01d13ccb173597331": {
            "hex": "010000000415eead73543a48364514f9dba6a0c46270a2d84ada84db02ee055cc412443d6d0200000001ffffffff2a31ad421e1a2c4efa6020a713bd9e0d1d79dffdd54aff776a4d75d5b2e58e130100000000ffffffff82e01821649c9c41f95750fb696e23a2bc14b42645cf56d6378eb7ec7eee267b0200000001ffffffffc4ceceeb49f2be13053e4b7175100e086ed9b1d05fd7ed29c046df88eeeb0de10200000001ffffffff04def3f5580100000000001976a914d46f62707e760cde6f33bea7a1815d3660ed50ef88acdef3f5580100000000001976a914d46f62707e760cde6f33bea7a1815d3660ed50ef88acdef3f5580100000000001976a914d46f62707e760cde6f33bea7a1815d3660ed50ef88ac963cc95b0000000000001976a91446e93c786b5c2d8d3ed4901642899e1d1162330b88ac000000000000000004d2d3334b010000002fdb0200020000006a47304402205cd4462ed5f4bd111ca8d89fa6c5ad9a6fc4bdfc912a9fca277d7e01a2281fd0022071d671c46874bd140af703a7f251bb7c042b69b87da46a6c2a3a6b4df7aa957d0121038bc7147a825d66d06c8bd429dbdd988baf47140f1589dc69c2074e9a36505ab9af6e2b84000000003edb0200010000006a473044022066527dbc888dce82cdd25af857083ca62445c9f8142ca59b6f5948fcc28a08af02201b8b16939013553d30933f2a99c064e10b4d87b16f06266b3e686031a71b2fe80121020a351ccac0833219d91d98c05d94b0d20e164d243a06756b29285a34ec1331fc81bab44a010000002edb0200000000006b48304502210098cada781b41e7d53f3d5fedc655ca69a8b9af860f00f94cb616110a0ee679d102207d110b8df9e9d8f2392a2ef76091630f551a7c399bc5e97d4463221cbb1a601e012103cdd6152456c0d39b2bcc59724a16382950a3c54690f89aba95006ec0406ed279543b974c010000002edb0200010000006a4730440220346fa554ad855902bb5659f0993689fe08f3ee80419dc3d7ceb43422d116814d0220654a3e45b813ffbbc8bd4010744e3ff88b685da7a3d511be890c491bb74b57780121031ce3c23bb6afb336a18de334db4c31ca66c8045a2f8dd2a127576a4fb3b61e65",
            "txid": "b99ecf023d08d5201f873e5994b6e87c310b0e6928b9f2e01d13ccb173597331",
            "blocktime":  1557286179,
            "time":  1557286179,
            "locktime": 0,
            "version": 1,
            "vin": [
                {
                    "txid": "6d3d4412c45c05ee02db84da4ad8a27062c4a0a6dbf9144536483a5473adee15",
                    "vout": 2,
                    "sequence": 4294967295,
                    "scriptSig": {
                        "hex": "47304402205cd4462ed5f4bd111ca8d89fa6c5ad9a6fc4bdfc912a9fca277d7e01a2281fd0022071d671c46874bd140af703a7f251bb7c042b69b87da46a6c2a3a6b4df7aa957d0121038bc7147a825d66d06c8bd429dbdd988baf47140f1589dc69c2074e9a36505ab9"
                    }
                },
                {
                    "txid": "138ee5b2d5754d6a77ff4ad5fddf791d0d9ebd13a72060fa4e2c1a1e42ad312a",
                    "vout": 1,
                    "sequence": 4294967295,
                    "scriptSig": {
                        "hex": "473044022066527dbc888dce82cdd25af857083ca62445c9f8142ca59b6f5948fcc28a08af02201b8b16939013553d30933f2a99c064e10b4d87b16f06266b3e686031a71b2fe80121020a351ccac0833219d91d98c05d94b0d20e164d243a06756b29285a34ec1331fc"
                    }
                },
                {
                    "txid": "7b26ee7eecb78e37d656cf4526b414bca2236e69fb5057f9419c9c642118e082",
                    "vout": 2,
                    "sequence": 4294967295,
                    "scriptSig": {
                        "hex": "48304502210098cada781b41e7d53f3d5fedc655ca69a8b9af860f00f94cb616110a0ee679d102207d110b8df9e9d8f2392a2ef76091630f551a7c399bc5e97d4463221cbb1a601e012103cdd6152456c0d39b2bcc59724a16382950a3c54690f89aba95006ec0406ed279"
                    }
                },
                {
                    "txid": "e10debee88df46c029edd75fd0b1d96e080e1075714b3e0513bef249ebcecec4",
                    "vout": 2,
                    "sequence": 4294967295,
                    "scriptSig": {
                        "hex": "4730440220346fa554ad855902bb5659f0993689fe08f3ee80419dc3d7ceb43422d116814d0220654a3e45b813ffbbc8bd4010744e3ff88b685da7a3d511be890c491bb74b57780121031ce3c23bb6afb336a18de334db4c31ca66c8045a2f8dd2a127576a4fb3b61e65"
                    }
                }
            ],
            "vout": [
                {
                    "value": 57.87481054,
                    "n": 0,
                    "scriptPubKey": {
                        "hex": "76a914d46f62707e760cde6f33bea7a1815d3660ed50ef88ac",
                        "addresses": [
                            "TskPPAMsiqxotikLSMjx8L6Wb1T66G3HEqR"
                        ]
                    }
                },
                {
                    "value": 57.87481054,
                    "n": 1,
                    "scriptPubKey": {
                        "hex": "76a914d46f62707e760cde6f33bea7a1815d3660ed50ef88ac",
                        "addresses": [
                            "TskPPAMsiqxotikLSMjx8L6Wb1T66G3HEqR"
                        ]
                    }
                },
                {
                    "value": 57.87481054,
                    "n": 2,
                    "scriptPubKey": {
                        "hex": "76a914d46f62707e760cde6f33bea7a1815d3660ed50ef88ac",
                        "addresses": [
                            "TskPPAMsiqxotikLSMjx8L6Wb1T66G3HEqR"
                        ]
                    }
                },
                {
                    "value": 15.39914902,
                    "n": 3,
                    "scriptPubKey": {
                        "hex": "76a91446e93c786b5c2d8d3ed4901642899e1d1162330b88ac",
                        "addresses": [
                            "TsXV5BXMe3zXtW9L3BpaRzx9NwvnAsM58or"
                        ]
                    }
                }
            ]
        }
    }
}
