{
    "blockHeight": 300000,
    "blockHash": "00000000000000000fe92d4a057bd4425c5f58fa9b4d5b34b6f2b596ff01b3c9",
    "blockTime": 1544597324,
    "blockTxs": [
        "563baae350810b5077cbced28b50425300f941374a9edce32f753b494f7bfb13",
        "bbee4bc916e8788f01d1a7c9b4b651731d7323b2f26ddd9c1285a9dad18602d9"
    ],
    "txDetails": {
        "563baae350810b5077cbced28b50425300f941374a9edce32f753b494f7bfb13": {
            "hex": "01000000010000000000000000000000000000000000000000000000000000000000000000ffffffff00ffffffff0398ac6f0800000000000017a914f5916158e3e2c4551c1796708db8367207ed13bb87000000000000000000000e6a0c976b0500f2de8cf4e5f53edc4aad9e320000000000001976a914f36761eb3326ea1f1f6583430e82d72fbb6a2ccc88ac00000000000000000130b80d3b0000000000000000ffffffff0800002f646372642f",
            "txid": "563baae350810b5077cbced28b50425300f941374a9edce32f753b494f7bfb13",
            "blocktime": 1544597324,
            "time": 1544597324,
            "locktime": 0,
            "version": 1,
            "vin": [
                {
                    "txid": "",
                    "vout": 0,
                    "sequence": 4294967295,
                    "coinbase": "00002f626565706f6f6c2e6f72672f"
                }
            ],
            "vout": [
                {
                    "value": 1.16097214,
                    "n": 0,
                    "scriptPubKey": {
                        "hex": "a914f5916158e3e2c4551c1796708db8367207ed13bb87",
                        "addresses": [
                            "Dcur2mcGjmENx4DhNqDctW5wJCVyT3Qeqkx"
                         ]
                    }
                },
                {
                    "value": 0,
                    "n": 1,
                    "scriptPubKey": {
                        "hex": "6a0ce0930400d477e87e1581d8d0"
                    }
                },
                {
                    "value": 6.96622208,
                    "n": 2,
                    "scriptPubKey": {
                        "hex": "76a91432ea2b655edd3933e892f7b1562c42dfcc01e83388ac",
                        "addresses": [
                            "DsVc7oQTKhGUQ9DyCXbPEkHCoqT2cmkjgS8"
                        ]
                    }
                }
            ]
        },
        "bbee4bc916e8788f01d1a7c9b4b651731d7323b2f26ddd9c1285a9dad18602d9": {
            "hex": "01000000013b352511845aad32ba4e3a9b718039ec4fd7d0df75621e8d07f4213f7b84acc60300000001ffffffff03cc2c11000000000000001976a9142c992f14cc5393bc904ae99487f8d1b961b1280f88ac9305b6610200000000001976a9142c992f14cc5393bc904ae99487f8d1b961b1280f88ac36390d280000000000001976a914c9e7fb6777e9667f36b4e953f90df4359507400788ac00000000000000000179dcd48902000000df920400000000006a47304402203de49d09036c6dbb4ee31fdf5e1e7de555a6e2d9d0adb6852611a86a74d461eb02203331a2e5502267cf9a9ed0b99df37a413edcdab56c78b50ee22de72343982da1012103d5961d435ad3b48439aa08b292d2f3b99ee59bfe2c1aff4daf603758da84df11",
            "txid": "bbee4bc916e8788f01d1a7c9b4b651731d7323b2f26ddd9c1285a9dad18602d9",
            "blocktime": 1544597324,
            "time": 1544597324,
            "locktime": 0,
            "version": 1,
            "vin": [
                {
                    "txid": "c6ac847b3f21f4078d1e6275dfd0d74fec3980719b3a4eba32ad5a841125353b",
                    "vout": 3,
                    "sequence": 4294967295,
                    "scriptSig": {
                        "hex": "47304402203de49d09036c6dbb4ee31fdf5e1e7de555a6e2d9d0adb6852611a86a74d461eb02203331a2e5502267cf9a9ed0b99df37a413edcdab56c78b50ee22de72343982da1012103d5961d435ad3b48439aa08b292d2f3b99ee59bfe2c1aff4daf603758da84df11"
                    }
                },
                {
                    "txid": "88f47a7e04488500cc24666ab2b940828c0fd05985639c9168395e02d09a70f9",
                    "vout": 1,
                    "sequence": 4294967294,
                    "scriptSig": {
                        "hex": "47304402201cac13c2cbac8e536bc922462f810ffc086e8cf4a51a7f73d8d08aaf56372d6902206cc3518b6024d9b7c4f2f30e5dbb954f6d4d77e6b76eccc1081a8ed505892a7001210209fa85c88fb0b628305a169ca62a103c0da2cace04300810ae57755ef31caae9"
                    }
                }
            ],
            "vout": [
                {
                    "value": 0.0112558,
                    "n": 0,
                    "scriptPubKey": {
                        "hex": "76a9142c992f14cc5393bc904ae99487f8d1b961b1280f88ac",
                        "addresses": [
                            "DsV2ijGww433hy2SDEvvnPbrqP5a23rDnQg"
                        ]
                    }
                },
                {
                    "value": 102.29253523,
                    "n": 1,
                    "scriptPubKey": {
                        "hex": "76a9142c992f14cc5393bc904ae99487f8d1b961b1280f88ac",
                        "addresses": [
                            "DsV2ijGww433hy2SDEvvnPbrqP5a23rDnQg"
                        ]
                    }
                },
                {
                    "value": 6.71955254,
                    "n": 2,
                    "scriptPubKey": {
                        "hex": "76a914c9e7fb6777e9667f36b4e953f90df4359507400788ac",
                        "addresses": [
                            "DsjNVDPCqbvb4yaE8bm1TDTZoZ4SFvZ6jKq"
                        ]
                    }
                }
            ]
        }
    }
}
