{
    "connectBlocks": {
        "syncRanges": [
            {"lower": 120000, "upper": 120050}
        ],
        "blocks": {
            "120017": {
                "height": 120017,
                "hash": "0000000003cff9fc185bc527c022b0a6fc44746863efcf2b61fc6fc3580e4871",
                "noTxs": 3,
                "txDetails": [
                    {
                        "hex": "01000000010000000000000000000000000000000000000000000000000000000000000000ffffffff00ffffffff032b015e0800000000000017a914d585cd7426d25b4ea5faf1e6987aacfeda3db94287000000000000000000000e6a0cd1d401007b0268472f90d1ea358634320000000000001976a9149bb0ab1ab455c220c575304aa6bb31dad3eff19888ac0000000000000000012e08923a0000000000000000ffffffff0800002f646372642f",
                        "txid": "48f0da83fe77e385b5ccd8fc038c5b2931ae4518c743eb41fb0a8f7c9ab27b59",
                        "version": 2,
                        "vin": [
                            {
                                "txid": "",
                                "vout": 0,
                                "coinbase": "00002f646372642f",
                                "value": 0,
                                "sequence": 4294967294
                            }
                        ],
                        "vout": [
                            {
                               "value": 1.40378411,
                               "n": 0,
                               "scriptPubKey": {
                                  "hex": "a914d585cd7426d25b4ea5faf1e6987aacfeda3db94287",
                                  "addresses": [
                                     "TcrypGAcGCRVXrES7hWqVZb5oLJKCZEtoL1"
                                  ]
                               }
                            },
                            {
                               "value": 0,
                               "n": 1,
                               "scriptPubKey": {
                                  "hex": "6a0cd1d401007b0268472f90d1ea"
                               }
                            },
                            {
                               "value": 8.42303029,
                               "n": 2,
                               "scriptPubKey": {
                                  "hex": "76a9149bb0ab1ab455c220c575304aa6bb31dad3eff19888ac",
                                  "addresses": [
                                     "TsfDLrRkk9ciUuwfp2b8PawwnukYD7yAjGd"
                                  ]
                               }
                            }
                         ],
                        "time": 1548564206,
                        "blocktime": 1548564206
                    }
                ]
            },
            "120030": {
                "height": 120030,
                "hash": "0000000000960cd08532a50b860f627251619252eb3f4038db6ddf0defff2b79",
                "noTxs": 3,
                "txDetails": [
                    {
                        "hex": "010000000238f6741258c584e3ecc2700acf7b65d4bcab45cc2b2652ac3dd2bcd123364f740300000001ffffffffadc1972f460461dc4ec85ef705a6472e1f9312877dc49f6abed23a888bd2cd220300000001ffffffff056a5c5d000000000000001976a914eb3d6580786e0c1ea7be0bd79547ca2d020bae9d88ac870d48df0000000000001976a914eb3d6580786e0c1ea7be0bd79547ca2d020bae9d88ac6a5c5d000000000000001976a914eb3d6580786e0c1ea7be0bd79547ca2d020bae9d88ac870d48df0000000000001976a914eb3d6580786e0c1ea7be0bd79547ca2d020bae9d88acce1d05010000000000001976a914b7132cd2bfdb2c17c376dd1745b60004563d0a6a88ac000000000000000002ae286ae200000000cdd40100000000006b4830450221008b5bb27b0464586ef8c4d9e02985cc88189c0e65a79a5b1dbd36e73e7728c276022015435d1c31b3c2560ef03e2091870db6f04946fefffc33dc0986bc582f2356e0012103c7935596dd3242629002f8fb52038ded4c273244ae59d543657596b595816b9998dde5dd00000000cdd40100010000006a47304402206897b511153501779cce981b392ea4e352df2f585b8c8951331009739c51939b02204c8308c55b3822356c91869b9b73b85122dfabbcbf2b40d96102c99fc08ab6ab012103c7935596dd3242629002f8fb52038ded4c273244ae59d543657596b595816b99",
                        "txid": "c95c7409a0fee08e0fcb8fdab14e17f9a8313abafd7cd4bf69af9fde727a4e98",
                        "version": 1,
                        "vout": [
                            {
                               "value": 0.06118506,
                               "n": 0,
                               "scriptPubKey": {
                                  "hex": "76a914eb3d6580786e0c1ea7be0bd79547ca2d020bae9d88ac",
                                  "addresses": [
                                     "TsnTxpYTCjpBRo6NdiEeGFksV7s8dEixaMc"
                                  ]
                               }
                            },
                            {
                               "value": 37.46041223,
                               "n": 1,
                               "scriptPubKey": {
                                  "hex": "76a914eb3d6580786e0c1ea7be0bd79547ca2d020bae9d88ac",
                                  "addresses": [
                                     "TsnTxpYTCjpBRo6NdiEeGFksV7s8dEixaMc"
                                  ]
                               }
                            },
                            {
                               "value": 0.06118506,
                               "n": 2,
                               "scriptPubKey": {
                                  "hex": "76a914eb3d6580786e0c1ea7be0bd79547ca2d020bae9d88ac",
                                  "addresses": [
                                     "TsnTxpYTCjpBRo6NdiEeGFksV7s8dEixaMc"
                                  ]
                               }
                            },
                            {
                               "value": 37.46041223,
                               "n": 3,
                               "scriptPubKey": {
                                  "hex": "76a914eb3d6580786e0c1ea7be0bd79547ca2d020bae9d88ac",
                                  "addresses": [
                                     "TsnTxpYTCjpBRo6NdiEeGFksV7s8dEixaMc"
                                  ]
                               }
                            },
                            {
                               "value": 0.17112526,
                               "n": 4,
                               "scriptPubKey": {
                                  "hex": "76a914b7132cd2bfdb2c17c376dd1745b60004563d0a6a88ac",
                                  "addresses": [
                                     "Tshi96yRHGfPJWz31yTo5UvDrNQ64VTq56c"
                                  ]
                               }
                            }
                         ],
                        "time": 1548565264,
                        "blocktime": 1548565264
                    },
                    {
                        "hex": "01000000010000000000000000000000000000000000000000000000000000000000000000ffffffff00ffffffff032b015e0800000000000017a914d585cd7426d25b4ea5faf1e6987aacfeda3db94287000000000000000000000e6a0cded401003387c553de73dc715cea34320000000000001976a9149bb0ab1ab455c220c575304aa6bb31dad3eff19888ac0000000000000000012e08923a0000000000000000ffffffff0800002f646372642f",
                        "txid": "72cb7f936a46014fdcef8fc10148274ea95c562948f0aac490ea942290553066",
                        "version": 1,
                        "vin": [
                            {
                                "coinbase": "00002f646372642f",
                                "sequence": 4294967295
                            }
                        ],
                        "vout": [
                            {
                               "value": 1.40378411,
                               "n": 0,
                               "scriptPubKey": {
                                  "hex": "a914d585cd7426d25b4ea5faf1e6987aacfeda3db94287",
                                  "addresses": [
                                     "TcrypGAcGCRVXrES7hWqVZb5oLJKCZEtoL1"
                                  ]
                               }
                            },
                            {
                               "value": 0,
                               "n": 1,
                               "scriptPubKey": {
                                  "hex": "6a0cded401003387c553de73dc71"
                               }
                            },
                            {
                               "value": 8.42328668,
                               "n": 2,
                               "scriptPubKey": {
                                  "hex": "76a9149bb0ab1ab455c220c575304aa6bb31dad3eff19888ac",
                                  "addresses": [
                                     "TsfDLrRkk9ciUuwfp2b8PawwnukYD7yAjGd"
                                  ]
                               }
                            }
                         ],
                        "time": 1548565264,
                        "blocktime": 1548565264
                    }
                ]
            }
        }
    },
    "connectBlocks": {
        "syncRanges": [
            {"lower": 120000, "upper": 120050}
        ],
        "fakeBlocks": {
            "120001": {
                "height": 120001,
                "hash": "00000000000000e463222f52668f5b66f15c65ee4db3c60ca6853ffa93ed21f3"
            },
            "120023": {
                "height": 120023,
                "hash": "00000000000002327a29e7fdf539e773e960e631622c46cf859efebdbb78f9a8"
            },
            "120047": {
                "height": 120047,
                "hash": "000000000000034fa12d7d3167b5cc37ae8b8e5e305b243c4842fdc576453837"
            }
        },
        "realBlocks": {
            "120001": {
                "height": 120001,
                "hash": "0000000007bf728a0fd7b41825763da0bf41bc86aea1813fe52d658ca76d1b2c"
            },
            "120023": {
                "height": 120023,
                "hash": "0000000003d011dc3b52c13ea2098367bc6d8de9c66ba322a02461d1bc125395"
            },
            "120047": {
                "height": 120047,
                "hash": "00000000038ec6283472cb71d404eacef8d62045a3bb9a45f7c314cf98ee4d4e"
            }
        }
    }
}
